:100000000C945A010C9482010C9482010C9482018C
:100010000C9482010C9482010C9482010C94820154
:100020000C9482010C9482010C9482010C94B622EF
:100030000C9482010C9482240C94CC240C948201A4
:100040000C9482010C9482010C9482010C94820124
:100050000C948201485454502F312E3020323030CD
:10006000204F4B0D0A436F6E74656E742D5479707A
:10007000653A20746578742F68746D6C0D0A50723F
:1000800061676D613A206E6F2D63616368650D0A6B
:100090000D0A3C68746D6C3E3C686561643E3C745E
:1000A00069746C653E6C6564436F6E74726F6C3C12
:1000B0002F7469746C653E3C2F686561643E3C62D8
:1000C0006F64793E3C68313E6C6564436F6E747258
:1000D0006F6C3C2F68313E757074696D653D2444CA
:1000E00024443A244424443A24442444203C6120B7
:1000F000687265663D222F223E726566726573687E
:100100003C2F613E3C6272202F3E707265736574B5
:100110003D24442F2444203C6120687265663D22C2
:100120002F70726576223E707265763C2F613E209C
:100130007C203C6120687265663D222F6E65787474
:10014000223E6E6578743C2F613E3C6272202F3EE9
:100150006672616D653D24443C2F626F64793E3C5C
:100160002F68746D6C3E0000010800060400014514
:10017000000082000040002000504F5354202446CD
:1001800020485454502F312E300D0A486F73743A62
:100190002024460D0A244624534163636570743A53
:1001A000202A2F2A0D0A436F6E74656E742D4C65DC
:1001B0006E6774683A2024440D0A436F6E74656E4E
:1001C000742D547970653A206170706C6963617444
:1001D000696F6E2F782D7777772D666F726D2D751D
:1001E000726C656E636F6465640D0A0D0A245300BA
:1001F000474554202446245320485454502F312E30
:10020000300D0A486F73743A2024460D0A24460DB7
:100210000A0D0A004163636570743A20746578744E
:100220002F68746D6C00E30004FA00010000000107
:1002300000003A0037003400310000003B00380075
:10024000350032000000390036003300300003036F
:10025000030303030303010101010101010104047C
:100260000404040404040202020202020202010263
:100270000408102040800102040810204080010280
:100280000408102040800102040810204080000073
:10029000000000000000000000000000000000005E
:1002A00000000403000500000001000000009A04A3
:1002B0005217332611241FBECFE5D8E0DEBFCDBFD5
:1002C00011E0A0E6B0E0E4EEF3E502C005900D9287
:1002D000A23BB107D9F71AE0A2EBB1E001C01D9231
:1002E000A230B107E1F712E0C4EBD2E004C02297DC
:1002F000FE010E94B529CE3AD107C9F70E94872690
:100300000C94F0290C940000A0E0B0E0EAE8F1E0E1
:100310000C94C129EC01A880B980CA80DB80A114AB
:10032000B104C104D10441F484E2A82E89EDB82EB1
:100330008BE5C82E87E0D82EC601B5012DE133EF3D
:1003400041E050E00E94982927EA31E440E050E083
:100350000E9424297B018C01C601B5012DE133EFF8
:1003600041E050E00E949829CA01B9012CEE34EF17
:100370004FEF5FEF0E9424296E0D7F1D801F911F9C
:1003800097FF04C061507040804090486883798333
:100390008A839B839B01AC015F77B901CA01CDB70A
:1003A000DEB7EAE00C94DD290E948401089585E41B
:1003B00091E00E9484010895609345017093460185
:1003C00080934701909348010895FB01DC0102C02E
:1003D00005900D9241505040D8F70895FB01DC0183
:1003E00004C08D910190801921F441505040C8F70C
:1003F000881B990B0895FB01DC0102C001900D924E
:1004000041505040D8F708956817790768F4FB0108
:10041000DC01E40FF51FA40FB51F02C002900E927D
:1004200041505040D8F708950C94FB01DC0101C005
:100430006D9341505040E0F70895FB01DC010190BD
:100440000D920020E1F70895FB01DC01415050407E
:1004500030F08D910190801919F40020B9F7881BB4
:10046000990B0895FA01CF93FF93EF93223044F153
:10047000253234F5C22FE894CA3049F497FB3EF494
:1004800090958095709561957F4F8F4F9F4F2C2F42
:10049000332744275527FF93EF930E947629EF9146
:1004A000FF91605D6A330CF0695D6193B901CA0127
:1004B000605070408040904051F716F4CDE2C193F7
:1004C00010828F919F91CF910C946602DC01FC0108
:1004D000672F71917723E1F7329704C07C916D9378
:1004E00070836291AE17BF07C8F30895FC01A08125
:1004F000B1812D913C91F9010995089581E008950C
:100500000895AF92BF92CF92DF92EF92FF920F9336
:100510001F9320912A0830912B0840912C0850916C
:100520002D08E0905901F0905A0100915B01109163
:100530005C0159016A0169E1D694C794B794A79404
:100540006A95D1F7AE0CBF1CC01ED11EB7E0220FBA
:10055000331F441F551FBA95D1F7A226B326C426D0
:10056000D526A0922A08B0922B08C0922C08D092CF
:100570002D08A8019701A9E156954795379527952C
:10058000AA95D1F72151314442455142F7E0EE0C92
:10059000FF1C001F111FFA95D1F72E253F2540277C
:1005A00051272093590130935A0140935B01509396
:1005B0005C019C01442737FD4095542FC601B501CD
:1005C0000E947629CB011F910F91FF90EF90DF9051
:1005D000CF90BF90AF900895EF92FF920F931F932B
:1005E0008535C0F490E09C01220F331F280F391F7E
:1005F000822F90E0A0E0B0E0BA2FA92F982F882793
:100600002095E22EFF2400E010E0E82AF92A0A2BC8
:100610001B2B35C08A3AE8F48555282F30E0C901F4
:10062000880F991F820F931F282F30E040E050E081
:10063000542F432F322F2227809590E0A0E0B0E086
:10064000822B932BA42BB52BEE24F82E092F1A2FD7
:1006500016C08A5A90E09C01220F331F280F391FC1
:10066000822F809590E0A0E0B0E08C01FF24EE2482
:1006700030E040E050E0E22AF32A042B152BB701CA
:10068000C8011F910F91FF90EF900895AF92BF9214
:10069000CF92DF92EF92FF920F931F93CF93DF934E
:1006A0006A0159017801E20EF31EEB01CC0FDD1F48
:1006B000C60FD71FC80FD91F8B01C60ED71E37C054
:1006C000C7010E948102AC014A195B0988819A0125
:1006D000280F311D2F3F310519F014F02FEF30E0B6
:1006E00037FF02C020E030E0288389819A01280F7B
:1006F000311D2F3F310519F014F02FEF30E037FF97
:1007000002C020E030E029838A819A01280F311D40
:10071000C9012F3F310519F014F08FEF90E097FFDA
:1007200002C080E090E08A830F5F1F4F23960C1574
:100730001D0534F2DF91CF911F910F91FF90EF9043
:10074000DF90CF90BF90AF9008954F925F926F92DD
:100750007F928F929F92AF92BF92CF92DF92EF9251
:10076000FF920F931F93CF93DF936C017B013A01AC
:10077000FB01EE0FFF1FE60FF71FE80FF91F808048
:1007800051804280CB010196FC01EE0FFF1FE80F64
:10079000F91FEC0DFD1D9080A180B280E60100E004
:1007A00010E03AC00F5F1F4FC801B3010E946329D8
:1007B0008E0D9F1DFC01EE0FFF1FE80FF91FEC0DC2
:1007C000FD1D208131814281892D90E0880D911D90
:1007D000820F911D63E070E00E94632968838A2D77
:1007E00090E0850D911D830F911D63E070E00E94E4
:1007F000632969838B2D90E0840D911D840F911DD9
:1008000063E070E00E9463296A8323964B2C5A2C84
:10081000892C922EA32EB42E061517051CF2DF91FB
:10082000CF911F910F91FF90EF90DF90CF90BF90ED
:10083000AF909F908F907F906F905F904F900895B2
:100840004F925F926F927F928F929F92AF92BF92E0
:10085000CF92DF92EF92FF920F931F93CF93DF938C
:100860002C015A01442737FD4095542FCC24D22E19
:10087000E32EF42EEB01A60EB71E3801882477FC78
:100880008094982C1FC08E01000F111F0C0F1D1F8C
:10089000040D151DBB27F7FCBA95AF2D9E2D8D2D90
:1008A0000E94EC029C0144275527F8012083272F42
:1008B000382F492F552721836283C60CD71CE81C8B
:1008C000F91C2196CA15DB05F4F2DF91CF911F9137
:1008D0000F91FF90EF90DF90CF90BF90AF909F90DF
:1008E0008F907F906F905F904F900895FC01A6814C
:1008F000B7816D93B783A68381E090E00895DF937D
:10090000CF9300D00F92CDB7DEB7DC01AB01ED91F4
:10091000FC910680F781E02D19821A821B82BE01AC
:100920006F5F7F4F20E009950F900F900F90CF9150
:10093000DF91089510922108109220088EE791E02F
:1009400090931F0880931E080E94FC226093260843
:100950007093270880932808909329080895CF92D0
:10096000DF92EF92FF920F931F93CF93DF93EC01EF
:100970008BE999E060E670E00E94132860914D01D8
:1009800070914E018BE999E04AE050E00E94F42713
:100990001092290610922806C530D10509F4D1C25B
:1009A000C630D105CCF4C230D10509F413C1C3302F
:1009B000D10544F4209771F1C130D10511F00C94A8
:1009C000880DDFC0C330D10509F461C1C430D10541
:1009D00011F00C94880DDCC1C830D10509F49DC517
:1009E000C930D1054CF4C630D10509F40FC327979F
:1009F00011F00C94880DBEC4CA30D10509F477C635
:100A0000CA30D1050CF4BEC5CB30D10511F00C9421
:100A1000880DF2C721E030E01092E9041092E8045A
:100A20001092EB041092EA043093ED042093EC044E
:100A30001092EF041092EE041092F1041092F00460
:100A40003093F3042093F2041092F5041092F4040E
:100A50001092F7041092F6041092F9041092F80420
:100A60001092FB041092FA043093FD042093FC04CE
:100A70001092FF041092FE044EE051E050930105E5
:100A8000409300051092030510920205109205058F
:100A90001092040530930705209306056FEF70E070
:100AA000709309056093080510920B0510920A05D2
:100AB00010920D0510920C0510920F0510920E0564
:100AC0003093110520931005109213051092120512
:100AD00050931505409314058AE590E0909317050F
:100AE00080931605109219051092180530931B0576
:100AF00020931A0510921D0510921C0570931F0576
:100B000060931E0510922105109220051092230576
:100B10001092220530932505209324051092270575
:100B200010922605509329054093280584EB90E008
:100B300090932B0580932A0510922D0510922C0579
:100B400030932F0520932E05109231051092300519
:100B50001092330510923205709335056093340579
:100B6000109237051092360585E090E090932906A3
:100B70008093280683E090E09093390580933805B0
:100B8000B9C1D0932906C093280686E090E09093DF
:100B9000E9048093E8041092EB041092EA0484E0E4
:100BA00090E09093ED048093EC041092EF04109287
:100BB000EE048FEF9FEF9093F1048093F0049093F5
:100BC000F3048093F204D093F504C093F40480E11D
:100BD00090E0CBC421E030E03093E9042093E804B6
:100BE0001092EB041092EA04D093ED04C093EC044D
:100BF0001092EF041092EE0489E19CEF9093F104BF
:100C00008093F0043093F3042093F2048FEF90E08C
:100C10009093F5048093F4049093F7048093F60482
:100C20009093F9048093F8041092FB041092FA0454
:100C3000D0932906C093280644E150E03093FD0488
:100C40002093FC041092FF041092FE04D09301053F
:100C5000C093000530930305209302058FEF9FEFAB
:100C600090930505809304059093070580930605EE
:100C70008AE090E0909309058093080550930B0556
:100C800040930A0550930D0540930C05BAC181E0CD
:100C900090E09093E9048093E8041092EB041092A2
:100CA000EA04D093ED04C093EC041092EF04109288
:100CB000EE042FEF3FEF3093F1042093F0043093D4
:100CC000F3042093F2044FEF50E05093F504409367
:100CD000F4041092F7041092F6041092F9041092A2
:100CE000F8041092FB041092FA049093FD04809390
:100CF000FC041092FF041092FE04D0930105C093EF
:100D00000005909303058093020530930505209319
:100D100004053093070520930605109209051092EB
:100D2000080550930B0540930A0510920D0510928B
:100D30000C0510920F0510920E05D0932906C09352
:100D400028069093110580931005109213051092B8
:100D50001205D0931505C093140582E090E090939E
:100D600017058093160530931905209318053093C5
:100D70001B0520931A0510921D0510921C05109258
:100D80001F0510921E055093210540932005BCC6F7
:100D900021E030E03093E9042093E8041092EB0462
:100DA0001092EA04D093ED04C093EC041092EF0487
:100DB0001092EE041092F1041092F0043093F304B8
:100DC0002093F2041092F5041092F4041092F704A8
:100DD0001092F6041092F9041092F8041092FB0499
:100DE0001092FA043093FD042093FC041092FF0447
:100DF0001092FE04D0930105C093000530930305C3
:100E00002093020510920505109204053093070502
:100E1000209306054FEF50E05093090540930805D5
:100E200010920B0510920A0510920D0510920C05F8
:100E300010920F0510920E0563E070E030931105DB
:100E4000209310051092130510921205D0931505EA
:100E5000C093140582E090E09093170580931605E7
:100E6000109219051092180530931B0520931A054E
:100E700010921D0510921C0550931F0540931E05EE
:100E80001092210510922005109223051092220540
:100E900030932505209324051092270510922605EE
:100EA000D0932905C093280570932B0560932A05DC
:100EB00010922D0510922C0530932F0520932E05AE
:100EC00010923105109230051092330510923205C0
:100ED000509335054093340510923705109236052E
:100EE00085E090E090932906809328067093390559
:100EF0006093380510923B0510923A0530933D05FA
:100F000020933C0510923F0510923E058FEF9FEF16
:100F1000909341058093400590934305809342054B
:100F2000109245051092440510924705109246050F
:100F3000109249051092480510924B0510924A05EF
:100F4000E7C561E070E086E090E09093E90480936B
:100F5000E8041092EB041092EA0484E090E090938D
:100F6000ED048093EC041092EF041092EE042FEF46
:100F70003FEF3093F1042093F0043093F304209377
:100F8000F2047093F5046093F40480E091E0909390
:100F9000F7048093F6041092F9041092F80410926A
:100FA000FB041092FA0482E090E09093290680936B
:100FB000280644E150E087E090E09093FD048093A0
:100FC000FC041092FF041092FE04709301056093DC
:100FD0000005109203051092020530930505209339
:100FE00004053093070520930605509309054093A7
:100FF000080550930B0540930A0510920D051092B9
:101000000C0510920F0510920E0582C541E050E0CC
:101010005093E9044093E8041092EB041092EA0420
:1010200007E010E01093ED040093EC041092EF043D
:101030001092EE041092F1041092F00424E030E0DB
:101040003093F3042093F2046FEF70E07093F50493
:101050006093F4041092F7041092F6041092F904CD
:101060001092F8041092FB041092FA0492E0C92E38
:10107000D12C5093FD044093FC041092FF04109275
:10108000FE0485E090E09093010580930005309385
:101090000305209302051092050510920405309374
:1010A0000705209306057093090560930805709362
:1010B0000B0560930A0510920D0510920C05109215
:1010C0000F0510920E05A3E0B0E050931105409378
:1010D0001005109213051092120587E190E090938D
:1010E000150580931405D0921705C092160510922D
:1010F00019051092180530931B0520931A0570935B
:101100001D0560931C0570931F0560931E05709369
:101110002105609320051092230510922205B093BB
:101120002505A093240510922705109226055093BB
:1011300029054093280510922B0510922A05EFEF00
:10114000FFEFF0932D05E0932C058DEF9FEF90932B
:101150002F0580932E0510923105109230051092C4
:101160003305109232051092350510923405109215
:101170003705109236051093390500933805109203
:101180003B0510923A0550933D0540933C05109263
:101190003F0510923E051092410510924005309394
:1011A00043052093420510924505109244058EE1B7
:1011B00090E0909347058093460510924905109260
:1011C000480510924B0510924A0510924D05109259
:1011D0004C0510924F0510924E0530935105209307
:1011E0005005109253051092520589E1E82E8CEFBC
:1011F000F82EF0925505E0925405D0925705C09212
:101200005605109259051092580510925B051092E0
:101210005A0510925D0510925C0510925F051092C0
:101220005E0530936105209360051092630510926E
:10123000620550936505409364051092670510920E
:1012400066051092690510926805F0936B05E093AE
:101250006A0510926D0510926C0510926F05109240
:101260006E05109271051092700510927305109220
:10127000720510937505009374051092770510920E
:101280007605509379054093780510927B0510926E
:101290007A0510927D0510927C05F0937F05E0930E
:1012A0007E0588E090E09093810580938005B0935F
:1012B0008305A093820510928505109284051092F3
:1012C000870510928605B0938905A0938805109232
:1012D0008B0510928A05B0938D05A0938C05109212
:1012E0008F0510928E05F0939105E0939005F09391
:1012F0009305E09392051092950510929405109233
:1013000097051092960510929905109298051092E3
:101310009B0510929A058AE090E0909329068093AD
:10132000280650939D0540939C0510929F051092AE
:101330009E05D093A105C093A0051092A30510921D
:10134000A205F092A505E092A4055093A70540934D
:10135000A6057093A9056093A8057093AB056093EB
:10136000AA051092AD051092AC051092AF0510922F
:10137000AE05CEC3E1E0F0E046E050E05093E90472
:101380004093E8041092EB041092EA0468E270E0E3
:101390007093ED046093EC041092EF041092EE044D
:1013A00029E13CEF3093F1042093F004F093F3042F
:1013B000E093F2048AE090E09093F5048093F404C3
:1013C0001092F7041092F6041092F9041092F804A7
:1013D0001092FB041092FA0484E190E05093FD0413
:1013E0004093FC041092FF041092FE0444E050E08D
:1013F00070930105609300059093030580930205A7
:101400003093050520930405F0930705E093060546
:10141000909309058093080510920B0510920A0518
:1014200080E890E090930D0580930C0510920F05D5
:1014300010920E055093110540931005109213055C
:1014400010921205F0931505E093140510921705FC
:10145000109216052FEF3FEF3093190520931805D2
:1014600030931B0520931A0510921D0510921C0540
:1014700010921F0510921E05109221051092200552
:10148000109223051092220583E090E090932505A9
:101490008093240510922705109226055093290564
:1014A0004093280510922B0510922A0530932D05A4
:1014B00020932C0530932F0520932E051092310593
:1014C00010923005109233051092320510923505B6
:1014D00010923405109237051092360585E090E0A1
:1014E00090932906809328061092390510923805AA
:1014F00010923B0510923A0550933D0540933C05F0
:10150000F0933F05E0933E0510924105109240058F
:10151000509343054093420503CD21E030E03093E2
:1015200029062093280686E090E09093E9048093B2
:10153000E8041092EB041092EA043093ED04209337
:10154000EC041092EF041092EE048FEF9FEF909353
:10155000F1048093F0049093F3048093F2043093A9
:10156000F5042093F40480E094E09093F7048093D2
:10157000F6041092F9041092F8041092FB041092F1
:10158000FA04C6C241E050E01092E9041092E80467
:101590001092EB041092EA0488EE93E09093ED042D
:1015A0008093EC041092EF041092EE042FEF3FEFC3
:1015B0003093F1042093F0043093F3042093F20469
:1015C0001092F5041092F4041092F7041092F604AD
:1015D0001092F9041092F8041092FB041092FA048D
:1015E00082E090E09093FD048093FC041092FF044D
:1015F0001092FE0464E070E084E190E090930105B5
:1016000080930005109203051092020530930505A2
:101610002093040530930705209306055093090590
:101620004093080510920B0510920A0510920D05C3
:1016300010920C0510920F0510920E0585E090E0B7
:1016400090931105809310051092130510921205C6
:101650005093150540931405109217051092160526
:10166000309319052093180530931B0520931A0514
:1016700050931D0540931C0510921F0510921E05E6
:101680001092210510922005109223051092220538
:10169000709329066093280683E090E090932505D7
:1016A0008093240510922705109226057093290532
:1016B0006093280510922B0510922A0530932D0572
:1016C00020932C0530932F0520932E051092310581
:1016D00010923005109233051092320510923505A4
:1016E00010923405109237051092360511C2E1E0D0
:1016F000F0E01092E9041092E8041092EB041092CA
:10170000EA0488EE93E09093ED048093EC04109249
:10171000EF041092EE048FEF9FEF9093F10480930B
:10172000F0049093F3048093F2041092F504109265
:10173000F4041092F7041092F6041092F904109237
:10174000F8041092FB041092FA0444E150E0F09384
:10175000FD04E093FC041092FF041092FE045093E9
:1017600001054093000510920305109202051092A6
:101770000505109204052EEF3FEF309307052093E7
:101780000605109209051092080510920B0510929B
:101790000A056FEF70E070930D0560930C051092D1
:1017A0000F0510920E05109211051092100510925F
:1017B0001305109212055093150540931405F093EC
:1017C0001705E0931605109219051092180530932D
:1017D0001B0520931A0510921D0510921C051092EE
:1017E0001F0510921E0510922105109220051092DF
:1017F000230510922205F0932505E093240510920D
:10180000270510922605509329054093280586E068
:1018100090E090932B0580932A0510922D0510924D
:101820002C0530932F0520932E0510923105109230
:101830003005109233051092320570933505609390
:101840003405109237051092360510923905109222
:10185000380510923B0510923A0550933D05409390
:101860003C0587E090E090933F0580933E05109201
:101870004105109240053093430520934205109294
:1018800045051092440510924705109246051092A6
:1018900049051092480510924B0510924A05F093A5
:1018A0004D05E0934C0510924F0510924E05509354
:1018B000510540935005D0935305C0935205309382
:1018C00055052093540530935705209356051092E3
:1018D00059051092580510925B0510925A057093A5
:1018E0005D0560935C0510925F0510925E05109295
:1018F0006105109260051092630510926205509385
:101900006505409364058BE090E0909367058093B4
:101910006605309369052093680530936B05209325
:101920006A0510926D0510926C0510926F05109269
:101930006E05109271051092700510927305109249
:101940007205F0937505E093740510927705109277
:101950007605509379054093780580E190E0909367
:101960007B0580937A0530937D0520937C05309329
:101970007F0520937E0510928105109280051092BC
:1019800083051092820570938505609384051092FB
:1019900087051092860589E090E090932906809350
:1019A0002806109289051092880510928B051092D6
:1019B0008A0550938D0540938C0581E190E09093CA
:1019C0008F0580938E053093910520939005309379
:1019D000930520939205109295051092940510920C
:1019E00097051092960510929905109298051092FD
:1019F0009B0510929A058CC041E050E086E090E093
:101A00009093E9048093E8041092EB041092EA04A6
:101A100088EC90E09093ED048093EC041092EF0436
:101A20001092EE042FEF3FEF3093F1042093F00477
:101A30003093F3042093F204D093F504C093F4049C
:101A400080E091E09093F7048093F6041092F904FB
:101A50001092F8041092FB041092FA0487E090E0D0
:101A60009093FD048093FC041092FF041092FE04F6
:101A70005093010540930005109203051092020552
:101A80003093050520930405309307052093060540
:101A900085E090E0909309058093080583E090E04D
:101AA00090930B0580930A0510920D0510920C057A
:101AB00010920F0510920E05909329068093280628
:101AC0009093110580931005109213051092120542
:101AD00050931505409314051092170510921605A2
:101AE000309319052093180530931B0520931A0590
:101AF00050931D0540931C0510921F0510921E0562
:101B000010922105109220051092230510922205B3
:101B1000DF91CF911F910F91FF90EF90DF90CF90C9
:101B20000895FA01EE0FFF1FE40FF51FAB01440FFC
:101B3000551F460F571F480F591FCA01622F70E0EB
:101B4000AF010E94160208956F927F928F929F922A
:101B5000AF92BF92CF92DF92EF92FF920F931F93BB
:101B6000CF93DF933C014B015901C0E0D0E06A0103
:101B7000EE24D7FCE094FE2C25C060E070E080E00D
:101B800090E0A70196010E940629C401860F971FC5
:101B90008C01000F111F080F191F060D171D80E083
:101BA00091E00E948102F801808380E091E00E9430
:101BB0008102F801818380E091E00E948102F801B6
:101BC00082832196CA15DB05C4F2DF91CF911F9164
:101BD0000F91FF90EF90DF90CF90BF90AF909F90CC
:101BE0008F907F906F9008950F931F938C01EEE676
:101BF000F2E0E491E093E809EEE4F2E0E491F0E051
:101C0000EE0FFF1FE65CFD4F859194919093E709DD
:101C10008093E60980E061E00E94BC238091E8099E
:101C2000F80182838091E6099091E7099483838388
:101C30001F910F910895CF92DF92EF92FF920F9331
:101C40001F93CF93DF93EC018B017A01690180919F
:101C5000FA098823C1F48AEF99E00E949626892B1D
:101C600091F01092CA091092CB091092CC091092EF
:101C7000CD0986E891E09093C6098093C5098AEF63
:101C800099E00E94A026CE0165EC79E0A8019701B9
:101C900086010E94AF16DF91CF911F910F91FF90A7
:101CA000EF90DF90CF900895CF93DF93EC010E94E7
:101CB0000A239B01AC0188819981AA81BB81281BE1
:101CC000390B4A0B5B0B22333105410551057CF37F
:101CD000DF91CF910895CF92DF92EF92FF920F9311
:101CE0001F93CF93DF936C01162F072FEA01E22E8B
:101CF00005960E94540EF894812F902FDC0190914C
:101D0000E809E091E609F091E709BE01660F771F47
:101D10006C0F7D1F6A0F7B1F5081592B808190951E
:101D2000982390832C913E2D239F212DABC085E0DD
:101D3000508300C000C0001427FF908300C000C083
:101D40000014908300C0220F815091F7001450833B
:101D500000C000C0001427FF908300C000C0001422
:101D6000908300C000C000140014508300C000C065
:101D7000001426FF908300C000C0001490831196C9
:101D80004C9111973E2D439F412D508300C000C0C0
:101D9000001425FF908300C000C00014908300C091
:101DA00000C0001485E0508300C000C0001447FF4D
:101DB000908300C000C00014908300C0440F815085
:101DC00091F70014508300C000C0001447FF9083B7
:101DD00000C000C00014908300C000C000140014B4
:101DE000508300C000C0001446FF908300C000C0B4
:101DF0000014908312963C9112972E2D329F312D14
:101E0000508300C000C0001445FF908300C000C094
:101E10000014908300C000C0001485E0508300C00F
:101E200000C0001437FF908300C000C000149083EE
:101E300000C0330F815091F70014508300C000C0E0
:101E4000001437FF908300C000C00014908300C0CE
:101E500000C01396508300C000C0001436FF90836A
:101E600000C000C0001490832C914E2D249F212D82
:101E7000508300C000C0001435FF908300C000C034
:101E800000149083A617B70708F451CF1124E090EF
:101E90000E09F0900F090091100910911109BE016F
:101EA000882777FD8095982F28EC31E040E050E0BE
:101EB0000E94242920E130E040E050E00E9498296F
:101EC000CA01B90128EE33E040E050E00E949829B1
:101ED000E20EF31E041F151FE0920E09F0920F0987
:101EE000009310091093110978940E940A23F601B7
:101EF0006583768387839087DF91CF911F910F91C0
:101F0000FF90EF90DF90CF900895AF92BF92CF9265
:101F1000DF92EF92FF920F931F93CF93DF935C01B9
:101F2000EB016A01122F05960E94540EF8949091CD
:101F3000E809E091E609F091E709B601660F771F1D
:101F40006C0D7D1D6C0F7D1F5081592B80819095EC
:101F5000982390832881219F212DDE01A7C085E051
:101F6000508300C000C0001427FF908300C000C051
:101F70000014908300C0220F815091F70014508309
:101F800000C000C0001427FF908300C000C00014F0
:101F9000908300C000C000140014508300C000C033
:101FA000001426FF908300C000C000149083498174
:101FB0000014419F412D508300C000C0001425FF34
:101FC000908300C000C00014908300C000C00014C3
:101FD00085E0508300C000C0001447FF908300C01C
:101FE00000C00014908300C0440F815091F700148A
:101FF000508300C000C0001447FF908300C000C0A1
:102000000014908300C000C000140014508300C06E
:1020100000C0001446FF908300C000C000149083ED
:102020003A810014319F312D508300C000C000144C
:1020300045FF908300C000C00014908300C000C022
:10204000001485E0508300C000C0001437FF908367
:1020500000C000C00014908300C0330F815091F77E
:102060000014508300C000C0001437FF908300C0EC
:1020700000C00014908300C000C01396508300C0BD
:1020800000C0001436FF908300C000C0001490838D
:1020900028810014219F212D508300C000C000140E
:1020A00035FF908300C000C000149083A617B707C7
:1020B00008F455CF1124E0900E09F0900F0900911B
:1020C000100910911109B601882777FD8095982F86
:1020D00028EC31E040E050E00E94242920E130E08B
:1020E00040E050E00E949829CA01B90128EE33E08F
:1020F00040E050E00E949829E20EF31E041F151FD5
:10210000E0920E09F0920F09009310091093110943
:1021100078940E940A23F5016583768387839087EC
:10212000DF91CF911F910F91FF90EF90DF90CF90B3
:10213000BF90AF9008959F92AF92BF92CF92DF92DF
:10214000EF92FF920F931F930E94FC2228EE33E040
:1021500040E050E00E947629122F032FF42EE52E46
:10216000622F732F842F952F20E13EE040E050E056
:102170000E94982959016A01612F702F8F2D9E2D81
:102180002CE330E040E050E00E949829CA01B901F8
:102190002CE330E040E050E00E949829962E612F19
:1021A000702F8F2D9E2D2CE330E040E050E00E94F8
:1021B0009829262F109221081092200880E696E098
:1021C00090932308809322089093250880932408F5
:1021D0008DB79EB746970FB6F8949EBF0FBE8DBFC2
:1021E000EDB7FEB731968EE198E0ADB7BEB7129667
:1021F0009C938E93119784E590E093838283C5012D
:102200006AE070E00E944F2975836483C5016AE02B
:1022100070E00E944F2997838683892D6AE00E948F
:10222000432980871186892D0E944329928713862E
:10223000822F0E94432984871586822F0E9443297A
:102240009687178680914D01808B118A80914B0172
:10225000828B138A8091E2049091E304958B848BA6
:102260000E94A61C20912408309125088091220804
:1022700090912308281B390B8DB79EB746960FB651
:10228000F8949EBF0FBE8DBFC9011F910F91FF90A3
:10229000EF90DF90CF90BF90AF909F9008950F93F5
:1022A0001F93CF93DF930E94991A0E94E21F8C0123
:1022B000009709F447C0EC01C65DD94F89E690E06C
:1022C000BE0144E050E00E9424020097D9F58EE65A
:1022D00090E0BE014AE050E00E942402009771F4B1
:1022E0001092E3041092E20480914D0190914E010E
:1022F00060914B0170914C01019618C089E790E004
:10230000BE014AE050E00E9424020097B9F4109206
:10231000E3041092E20460914B0170914C018091B2
:102320004D0190914E01860F971F01970E946329DE
:1023300080934D0190934E010E94AF040E949B1028
:102340000E94FE1EC801DF91CF911F910F91089549
:1023500084EF91E063E571E04CE10E94631C882307
:1023600049F48BE999E064E870E00E9416282FEFA9
:102370003FEF0AC08FE491E060E070E040E050E0A1
:102380000E94401C20E030E0C9010895CF93DF9304
:10239000809194019091950162EB71E04EE051E0E3
:1023A00020E030E00E941B0E8BE999E040E052EC07
:1023B00061E070E00E9402258BE999E06BEA70E031
:1023C0000E94162888E060E00E94BC2388E061E05B
:1023D0000E94FB238BE999E067EB70E00E941328D1
:1023E000C0E0D0E006C08BE999E06DEB70E00E94A0
:1023F0001328FE01E15BFE4F8BE999E060814AE022
:1024000050E00E94A2272196C430D10561F78BE9E4
:1024100099E06FEB70E00E9413280E94A8118BE9ED
:1024200099E065EC70E00E94162885E090E00E943B
:10243000AF04DF91CF910895CF93DF93EC01DA01E0
:10244000FA01EE0FFF1F2223B9F4CB019B012F5F8E
:102450003F4FA901440F551F420F531FBC01660F88
:10246000771F680F791F6C0F7D1FEA0FFB1F3397D3
:10247000CE01840F951F14C0CB019B01220F331F87
:10248000260F371F0196BC01660F771F680F791F53
:102490006C0F7D1FEA0FFB1F3397CE01820F931F36
:1024A000AF010E940402DF91CF9108952F923F92D5
:1024B0004F925F926F927F928F929F92AF92BF9254
:1024C000CF92DF92EF92FF920F931F93DF93CF9300
:1024D000CDB7DEB766970FB6F894DEBF0FBECDBF9F
:1024E0000E944F1188E00E943E24892B59F58BE908
:1024F00099E068EC70E00E94162880E291EA02C040
:102500008AE090E00E948C2388E00E943E24892B80
:10251000B9F380E291EA0E948C231092E3041092B6
:10252000E20480914D0190914E0160914B017091B8
:102530004C0101960E94632980934D0190934E01B6
:102540000E94AF0420919401309195013A83298330
:102550002E5B3F4F3C8B2B8B07C28BE999E00E948F
:10256000BA258A3031F48BE999E063E20E94CE26E5
:10257000FBC1883749F410922906109228068BE98E
:1025800099E060ED70E012C0863609F0B3C0109299
:10259000E4048BE999E00E94E0287E8B6D8B60312A
:1025A00071053CF08BE999E069ED70E00E94162816
:1025B000DBC18BE999E00E94E0287B018C018BE96B
:1025C00099E00E94E0286F87788B898B9A8B8BE942
:1025D00099E00E94E0286B877C878D879E878BE936
:1025E00099E00E94E0286F83788789879A878BE932
:1025F00099E00E94E0286B837C838D839E838BE926
:1026000099E00E94E0281B012C018BE999E00E94CF
:10261000E0283B014C018BE999E00E94E0285B0136
:102620006C018BE999E00E94E028AD89BE89E4E164
:10263000F0E0AE9FC001AF9F900DBE9F900D1124A2
:1026400088519B4FFFEFEF22FF24DC01ED92FC92BB
:10265000ED89FE89EE0FFF1F2D893E89B3E0220F21
:10266000331FBA95E1F7E20FF31FEE0FFF1FE6519C
:10267000FB4F118210824D895E89440F551F440F14
:10268000551FED89FE894E0F5F1F440F551F440FE4
:10269000551F44515B4FEF85F889DA01ED93FC93A8
:1026A000EB85FC85DC011796FC93EE9316972F8142
:1026B000388519963C932E9318974B815C811B9615
:1026C0005C934E931A971D963C922E921C971F96E0
:1026D0007C926E921E975196BC92AE9250975396F2
:1026E0007C936E9352978BE999E06EED70E00E94B7
:1026F000162803C08C3609F072C068EEE62E64E03E
:10270000F62E00E010E062C08BE999E06EEE70E01A
:102710000E9413288BE999E0B8014AE050E00E943A
:10272000F4278BE999E068EF70E00E941328D70145
:102730006D917C918BE999E04AE050E00E94F4278A
:102740008BE999E06FEF70E00E941328F701648134
:1027500075818BE999E04AE050E00E94F4278BE90B
:1027600099E06DE071E00E941328D70116966D91F3
:102770007C9117978BE999E04AE050E00E94F4279A
:102780008BE999E06AE171E00E941328F701608506
:1027900071858BE999E04AE050E00E94F4278BE9CB
:1027A00099E067E271E00E941328D7011A966D91B3
:1027B0007C911B978BE999E04AE050E00E94F42756
:1027C0000F5F1F4FE4E1F0E0EE0EFF1E8091280640
:1027D00090912906081719070CF496CFC5C08037C9
:1027E000A1F41092E3041092E20480914D019091C3
:1027F0004E0160914B0170914C0101960E9463293A
:1028000080934D0190934E0110C0803589F4109251
:10281000E3041092E2048BE999E00E94E028DC01D5
:10282000CB0190934E0180934D010E94AF049CC058
:10283000843451F48091490190914A01823091058C
:102840000CF492C0019707C0843651F4809149017D
:1028500090914A01019690934A018093490184C066
:10286000823709F081C0F1E0F093E404A2EBB1E01B
:10287000EAE2F3E01D923197E9F71092E604109234
:10288000E5041092E70408E813E18BE999E00E945F
:10289000BA259C0197FF0DC00150104029F48BE927
:1028A00099E064E371E04CC08AE090E00E948C23E0
:1028B0004AC04091E704413029F0413080F0423075
:1028C00039F51AC08091E5049091E604FC01EE0F01
:1028D000FF1FE80FF91FEE54FE4F208319C08091AF
:1028E000E5049091E604FC01EE0FFF1FE80FF91FCD
:1028F000EE54FE4F21830CC08091E5049091E604D4
:10290000FC01EE0FFF1FE80FF91FEE54FE4F22836C
:10291000842F8F5F8093E7048330A8F01092E70440
:102920008091E5049091E60401969093E6048093EB
:10293000E5048E5091403CF08BE999E065EC70E045
:102940000E94162804C0101611060CF49ECF8BE9C5
:1029500099E067E371E00E94162889819A81AB892A
:10296000BC896C910E9404178BE999E00E9489252B
:10297000181619060CF4F1CD8091E404882309F0AF
:10298000D5C16091E2047091E3046F5F7F4F709353
:10299000E3046093E2048BE999E04AE050E00E948E
:1029A0008527A8EEAA2EA4E0BA2EEE24FF24FEE08E
:1029B000CF2EF1E0DF2E81C1F50164817581809118
:1029C000E2049091E3040E944F2926813781821707
:1029D000930709F06BC160857185FFEF613E7F074A
:1029E00009F475C02FEF623E72076CF53FEF663D4C
:1029F000730709F466C04FEF673D740784F45FEF17
:102A0000643D750709F460C08FEF653D78070CF0F1
:102A10004AC09CEF6931790709F05EC047C0AFEF4B
:102A2000683D7A07D1F1BFEF683D7B070CF452C0D7
:102A3000EFEF6F3D7E0709F447C0FFEF603E7F0771
:102A400009F04AC02DC02FEF6C3E720731F13FEF05
:102A50006D3E73076CF44FEF6A3E7407A9F15FEFA8
:102A60006B3E750774F58FEF623E7807A9F515C0C8
:102A70009FEF6D3F790759F1AFEF6E3F7A072CF466
:102A8000BFEF6C3F7B0741F525C0EFEF6E3F7E0740
:102A9000C1F0FFEF6F3F7F07F9F460E070E01CC00A
:102AA00064EB70E019C06AEC70E016C060E070E0A2
:102AB00080E090E02EE031E040E050E00E94062906
:102AC0000BC067E870E008C06EE071E005C06AE521
:102AD00070E002C063E470E0D5011A964D915C91FC
:102AE0001B97BFEF413E5B07D9F1EFEF423E5E0718
:102AF000B4F4FFEF463D5F0781F12FEF473D5207EA
:102B00002CF43FEF453D530781F524C08FEF473D3F
:102B1000580749F19FEF403E590739F518C0AFEF0C
:102B20004D3F5A07E9F0BFEF4E3F5B072CF4EFEF44
:102B30004C3F5E07D1F417C0FFEF4E3F5F0769F0CF
:102B40002FEF4F3F520789F44EE051E00EC044EBA7
:102B500050E00BC04AEC50E008C047E850E005C028
:102B60004AE550E002C043E450E0CA01860F971FD7
:102B70008F5091401CF0A601461B570B57FF02C017
:102B800040E050E0D5018D919C918330910509F48E
:102B90004DC0843091054CF48130910519F182309B
:102BA0009105D4F5892B89F07BC08530910509F416
:102BB00044C0853091050CF440C08630910509F47D
:102BC00041C0079709F06CC05EC0F501048515850A
:102BD000222717FD2095322F82EB91E0202F0E94B3
:102BE000910D5EC0F501A485968580899B01220F19
:102BF000331F260F371F460F571F0AC0F901EE5427
:102C0000FE4F9083A18382836F5F7F4F2D5F3F4F85
:102C1000641775079CF344C0D5011C962D913C9117
:102C20001D9782EB91E00E94A40D3AC082EB91E0E7
:102C3000F50124850E941C1233C082EB91E00E94B2
:102C4000A5032EC0D5011C962D913C911D9712967F
:102C50008D919C911397F901E89F9001E99F300DA8
:102C6000F89F300D112450968D919C915197280F0B
:102C7000391F30701E960D911C911F9782EB91E0C9
:102C80000E9420040DC0D5011C962D913C911D97EA
:102C90001E960D911C911F9782EB91E00E944603B6
:102CA000F501828193810196938382830894E11CCC
:102CB000F11C24E130E0A20EB31E80912806909111
:102CC0002906E816F9060CF477CE89819A81AC01C1
:102CD0004E5B5F4FDA016C910E9404170E94FC2248
:102CE0007B018C018091260890912708B701681B11
:102CF000790B4091490150914A016417750774F4AA
:102D00009A01261B370B241735070CF49A01B901D9
:102D1000882777FD8095982F0E943123E09226081E
:102D2000F0922708009328081093290866960FB69A
:102D3000F894DEBF0FBECDBFCF91DF911F910F91F1
:102D4000FF90EF90DF90CF90BF90AF909F908F90CB
:102D50007F906F905F904F903F902F900895DF92FB
:102D6000EF92FF920F931F93CF93DF93EC017B01C0
:102D7000101611062CF0D22E032F20E030E002C0F6
:102D8000D02E012FC05CDF4FA881B981C054D04044
:102D9000FE0160E070E007C0808191813896892B48
:102DA00041F06F5F7F4F6A177B07B4F3EE24FF2477
:102DB00022C0E3E0660F771FEA95E1F7DE01A60F78
:102DC000B71F1196FC92EE92FE01E60FF71F538398
:102DD000428317963C932E931697FB013496EC0F83
:102DE000FD1FD0820183D701ED91FC910190F0810C
:102DF000E02DC7010995C701DF91CF911F910F9178
:102E0000FF90EF90DF900895DF92EF92FF920F9383
:102E10001F93CF93DF93D62EEC0100E010E050E437
:102E2000E52EF12CE80EF91E1DC0A881B98110977E
:102E3000F9F0ED91FC9111972E813F81C901880F26
:102E4000991F820F931F6A817B81680F791F4C81C4
:102E50005D810084F185E02DCD012D2D09950F5F59
:102E60001F4F2896F7018081918108171907ECF20E
:102E7000DF91CF911F910F91FF90EF90DF90089518
:102E8000FC01E05CFF4F88E090E0819391938FEF2D
:102E90008083E254F040CF0160E040E450E00E94C3
:102EA000631708958EE298E00E9440178CEF96E930
:102EB000AFEFBFEF8093710890937208A0937308EF
:102EC000B09374080895DC0140FF03C001C06D9306
:102ED0006D934250E0F75040D0F70895DF93CF93C1
:102EE00000D000D000D0CDB7DEB7DE011196E6E904
:102EF000F1E086E001900D928150E1F786E191E0EA
:102F0000EAE2F6E0DF019C011D9221503040E1F73A
:102F100080917508833019F460EC78E003C0BE013D
:102F20006F5F7F4F84E490E043E450E00E94281EEE
:102F300080917508833039F08AE296E0BE016F5FB8
:102F40007F4F0E94A22281E0809354068093550611
:102F500086E0809356068091820890918308A09124
:102F60008408B09185088093580690935906A093E1
:102F70005A06B0935B0680917508833039F484E576
:102F800096E00C9664EB78E00E94AA2280E796E037
:102F90006EEA78E00E94A222A0E4B7E0EEE6F1E05B
:102FA00002C081918D9331E0E437F307D1F790911E
:102FB0007508992311F083E001C081E080934607F2
:102FC0008DE38093470787E08093480781E08093F3
:102FD0004907AAE4B7E0EEEAF8E002C081918D93D8
:102FE00088E0E43BF807D1F78CE0809350078AE053
:102FF00080935107EDE5F1E0A2E5B7E002C08191D1
:103000008D9321E0E736F207D1F72CE537E03093D6
:10301000870820938608913069F582E380935C07E6
:1030200084E080935D07D9011296E4EBF8E002C0DA
:1030300081918D9338E0E83BF307D1F786E38093E5
:10304000620784E08093630784E697E090938708A3
:1030500080938608DC01E0ECF8E002C081918D935A
:1030600088E0E43CF807D1F788E697E0909387087A
:10307000809386082091860830918708D901E8E678
:10308000F1E002C081918D9381E0EE36F807D1F72F
:10309000C9010696909387088093860884559640C8
:1030A0000E94B31F26960FB6F894DEBF0FBECDBFA9
:1030B000CF91DF910895DF92EF92FF920F931F93CC
:1030C000CF93DF938C0180917508823009F4F7C0AB
:1030D000833030F4882351F1813009F054C14AC063
:1030E000833021F0843009F04EC1E9C00E94FC22F7
:1030F00020917A0830917B0840917C0850917D089E
:10310000E0907608F090770800917808109179089F
:103110002E0D3F1D401F511F62177307840795072F
:1031200008F431C10E946E1784E017C00E94FC228F
:103130006093820870938308809384089093850835
:103140001092B4081092B5081092B6081092B70801
:103150000E946E170E942E1A81E0809375080E94CB
:10316000FC2260937E0870937F0880938008909380
:10317000810809C10634110508F4F0C080914D069C
:10318000833409F0EBC020915806309159064091E4
:103190005A0650915B068091820890918308A09115
:1031A0008408B0918508281739074A075B0709F09A
:1031B000D5C0C4E4D7E0FE01A801465D594FDF0148
:1031C000119691819D012F5F3F4F8081853321F4BE
:1031D00011968C91823039F0F901E90FF11DE41755
:1031E000F50768F3BBC084EB98E064E676E00E94E4
:1031F000AA225AE2E52E56E0F52EE00EF11EFE015F
:103200003196D9808F010F5F1F4F88818630A9F0DA
:10321000873030F4813059F0833009F045C00AC05E
:103220008633E9F18A3361F08333F1F509C088EB25
:1032300098E037C08CEB98E034C084EC98E031C063
:10324000618170E080E090E0982F872F762F6627CD
:10325000F8012181620F711D811D911D982F872F0B
:10326000762F66272281620F711D811D911D982F77
:10327000872F762F66272381620F711D811D911D77
:1032800028EE33E040E050E00E94242960937A0861
:1032900070937B0880937C0890937D0805C080EC38
:1032A00098E0B8010E94AA22E801CD0DD11DCE15EB
:1032B000DF0508F4A4CF0E946E1782E04ECF0634DB
:1032C000110508F44BC080914D06833409F046C0C7
:1032D000209158063091590640915A0650915B064C
:1032E0008091820890918308A0918408B09185080C
:1032F000281739074A075B0789F5E4E4F7E0A801D6
:10330000465D594FDF01119691819D012F5F3F4F1F
:103310008081853321F411968C91853039F0F90143
:10332000E90FF11DE417F50768F318C00E94291A88
:103330000E94FC2260937608709377088093780847
:10334000909379088091BC08882321F08CEB98E059
:103350000E948E1E83E08093750815C00E94FC2297
:1033600020917E0830917F0840918008509181081B
:10337000205F384D4F4F5F4F2617370748075907D3
:1033800010F410927508DF91CF911F910F91FF906B
:10339000EF90DF90089580918A0861E00E94FB23FE
:1033A00078940895FF920F931F93082F162FF42EF1
:1033B000F89480918A0860E00E94FB231F71102B13
:1033C0001FB9779BFECFFFB8779BFECF0E94CB192A
:1033D0001F910F91FF9008951F93182F282F30E011
:1033E0002076307080918B0890E02817390799F08B
:1033F00080EA6FE143E00E94D219412F407640936A
:103400008B0850E085E0559547958A95E1F780E86F
:103410006FE10E94D2191F9108950F931F93182FE7
:10342000062F0E94EC1980E4612F402F0E94D219D0
:103430001F910F9108950F931F93182F072F0E942C
:103440000D1A812F8F5F602F0E940D1A1F910F910F
:10345000089588E360EB0E940D1A089588E361EBFC
:103460000E940D1A08950F931F93182F062FF8949A
:1034700080918A0860E00E94FB23802F8F71812B4E
:103480008FB9779BFECF1FB8779BFECF07FF03C096
:103490001FB8779BFECF1FB10E94CB19812F1F91C0
:1034A0000F9108951F93182F0E94EC1980E0612F4F
:1034B0000E94331A1F91089584ED61E10E940D1A54
:1034C00082ED61E00E940D1A8AEE0E94521A80FD80
:1034D000FBCF82ED60E00E940D1A89ED0E94521A26
:1034E00090E09695879596958795817008950F93AE
:1034F0001F93CF93DF93EC018B01F89480918A089E
:1035000060E00E94FB238AE38FB9779BFECF08C05F
:103510001FB8779BFECF8FB1F80181938F01219760
:103520002097B1F70E94CB19DF91CF911F910F9196
:1035300008950F931F93DF93CF9300D000D000D056
:10354000CDB7DEB789E30E94521A882319F400E050
:1035500010E048C060918C0870918D0880E00E9456
:103560001B1A86E090E0BE016F5F7F4F0E94771AC2
:1035700089819A8190938D0880938C082B813C815E
:10358000E0918808F09189088D8187FD03C000E0F3
:1035900010E00EC0245030408F0101501040201721
:1035A000310708F48901C8016AE276E00E94771ABF
:1035B000F801E65DF94F108260918C0870918D08DA
:1035C0008CE06130780724F08CE06FEF7BE003C083
:1035D000615070408CE00E941B1A80E86EE140E46C
:1035E0000E94D219C80126960FB6F894DEBF0FBE0E
:1035F000CDBFCF91DF911F910F9108950F931F932E
:10360000CF93DF938C01EB01F89480918A0860E0FE
:103610000E94FB238AE78FB9779BFECF07C0888182
:103620008FB9779BFECF21960150104001151105EF
:10363000B1F70E94CB19DF91CF911F910F9108959F
:10364000CF93DF93EC010FC08CE10E94521A81FFEF
:103650000AC080E86FE140E80E94D21980EA6FE179
:1036600040E80E94D21980E06FE10E94331A83FD86
:10367000EBCF82E060E07CE00E941B1ABE0160504C
:10368000744F86E00E941B1A8AE760E040E00E94C7
:10369000D219CE016AE276E00E94FE1A80E86FE15C
:1036A00048E00E94D219DF91CF9108958CE161E04A
:1036B0000E94BC238CE161E00E94FB238DE161E06C
:1036C0000E94BC238FE161E00E94BC238EE160E098
:1036D0000E94BC238DE161E00E94FB238DE160E04C
:1036E0000E94FB238FE160E00E94FB2380E58DB9FF
:1036F000709A08951F93CF93DF93EB01142F90934B
:103700008908809388086E9902C00E94561B109306
:103710008A08812F61E00E94BC230E94CB198FEFA1
:1037200060E04FEF0E94D21962E070E080E090E02C
:103730000E94312380E06DE10E94331A8823D1F387
:1037400010928D0810928C0888E060E070E00E9472
:103750001B1A8CE060E070E00E941B1A8AE06FEF99
:103760007BE00E941B1A84E060E07CE00E941B1A50
:1037700086E06FEF71E10E941B1A0E942E1A88E208
:103780006FE370E30E941B1A80E369EF77EF0E94FA
:103790001B1A80EC6DE00E940D1A81EC60E00E9423
:1037A0000D1A80E862EC42E30E94D21986EC62E1D5
:1037B0007CE00E941B1A84EC62E10E940D1A8AECE4
:1037C0006CED75E00E941B1A84EE68810E940D1A50
:1037D00085EE69810E940D1A82EE6A810E940D1A9F
:1037E00083EE6B810E940D1A80EE6C810E940D1A8F
:1037F00081EE6D810E940D1A84ED60E10E940D1A28
:1038000086ED60E071E00E941B1A8AEE0E94521A57
:1038100080FDFBCF8FE10E94EC1980E86BE140EC6A
:103820000E94D21980E86FE144E00E94D21982E739
:103830000E94521A863008F08F5FDF91CF911F915E
:103840000895CF93DF93EC019B018A30910548F0F6
:103850006AE070E00E944F29CB01B9010E94211C4F
:103860009C01CE016AE070E00E944F29805DF90161
:103870008193D90111961C92CF01DF91CF910895C8
:103880000F931F93CF93DF939C01EB018A0110925A
:10389000CC08009729F084EB98E0B9010E94AA2295
:1038A000209719F0CE010E948E1E0115110529F0F6
:1038B00084EC98E0B8010E94AA2281E0DF91CF91C8
:1038C0001F910F910895AF92BF92CF92DF92FF9216
:1038D0000F931F93CF93DF938C01EB01F42E109283
:1038E000CC0838E341E050E060E070E018C0832F7E
:1038F00090E0FC01B3E0F595E795BA95E1F7E25762
:10390000F74F877090705A016B0104C0AA0CBB1C62
:10391000CC1CDD1C8A95D2F720812A2920833150C6
:1039200031F78EEA98E0BE010E94A222C8016EEA39
:1039300078E04F2D0E947A1BDF91CF911F910F915C
:10394000FF90DF90CF90BF90AF900895CF92DF921D
:10395000EF92FF920F931F93DF93CF93CDB7DEB714
:10396000EB84FC84CD84DE84DE011F9601C0D80187
:10397000F6018491882309F4BAC00894C11CD11CB3
:10398000843209F097C0F6010894C11CD11C8491BF
:10399000863409F45DC0873434F4843469F08534A6
:1039A00009F088C06CC08C34B9F1833509F443C088
:1039B000883409F07FC00BC08D010E5F1F4FF701E7
:1039C000668177818D919C910E94211C7EC02C91F3
:1039D000822F992787FD909514E0959587951A95E4
:1039E000E1F78F702F702A300CF0295F8A300CF0CD
:1039F000895F8D010E5F1F4FF701A681B781805D42
:103A0000FD018193205D11962C933196D701179675
:103A1000FC93EE931697ABCF8D010C5F1F4F6D910A
:103A20007D918D919C91F701468157812AE030E08C
:103A30000E9432024AC08D010E5F1F4F6D917C9132
:103A4000D70116968D919C9117970E941D023DC03B
:103A50008D010E5F1F4F2D913C910AC0D701169624
:103A6000ED91FC91179781931796FC93EE9316971F
:103A7000F9012F5F3F4F8491882381F778CF8D0123
:103A80000E5F1F4F2D913C910AC0D7011696ED9104
:103A9000FC91179781931796FC93EE931697E199F3
:103AA000FECF3FBB2EBBE09A8DB32F5F3F4F8823E5
:103AB00061F75DCFF70126813781F90181939F017D
:103AC000F701378326838D0152CFD70116968D914A
:103AD0009C911797FC0101900020E9F73197E81BB2
:103AE000F90B8E0F9F1FF7019783868340CFCF91ED
:103AF000DF911F910F91FF90EF90DF90CF9008958D
:103B0000DF92EF92FF920F931F93CF93DF93D82E04
:103B1000862FBA01213041F4675F7F4F9B0140E05F
:103B200050E0695070400EC0223029F020E030E0B3
:103B300040E050E007C0625070409B0140E050E020
:103B40006E5F7F4FE82EFF248AE296E0E80EF91EB2
:103B50008B01E7010FC0F881E0E0898190E08E2BB6
:103B60009F2BA0E0B0E0280F391F4A1F5B1F229651
:103B7000025010400230110570F7CB018E7FD70143
:103B8000A80FB91F6817790779F08C9190E0A0E031
:103B9000B0E0BA2FA92F982F882702C040E050E04C
:103BA000280F391F4A1F5B1FCA01AA27BB2700978E
:103BB000A105B10599F7C90180959095ED2DF0E02B
:103BC000E65DF94F90838183DF91CF911F910F9133
:103BD000FF90EF90DF9008951092420610924306F6
:103BE00080E480933E0610923F068093400688E171
:103BF0006EE044E150E020E00E94801D08950F93A4
:103C00001F93BC010AE216E0C8010E94A222C8016B
:103C100006966EEA78E00E94A2221F910F91089505
:103C2000EF92FF920F931F937B010E94FF1D08E408
:103C300016E0C801B7010E94AA22C801049764EBEC
:103C400078E00E94AA221F910F91FF90EF900895B3
:103C5000EF92FF920F931F93CF93DF937C01EB01C1
:103C60008A0189ED98E00E94101E8881807F803E45
:103C700049F088819981AA81BB818F5F9F4FAF4FA7
:103C8000BF4F31F48AE296E06CE971E00E94A22213
:103C900088E0809336061092370688E396E06FE658
:103CA00071E049E050E00E94E50110923A0681E19E
:103CB0008093410610934E0600934F06F0924C06F7
:103CC000E0924D0610925006109252061092530642
:103CD000DF91CF911F910F91FF90EF900895EF9298
:103CE000FF920F931F9300E316E0C8010E94FF1D8F
:103CF00074E1E72EF12CE00EF11EC8014896B701E1
:103D00000E94AA22C70164EB78E00E94AA220E94C6
:103D1000EC1D1F910F91FF90EF900895BC0181E081
:103D20008093CE088CEB98E00E94AA2208950F930E
:103D30001F938C01889690933A0680933B060E94CD
:103D4000EC1D10925C0610925D06045E1F4F82E32C
:103D50006AE1A80122E00E94801DC8014A960E94E3
:103D6000201B1F910F910895CF93DF939C01862F05
:103D7000806180935906643029F02115310511F4D2
:103D800021E030E090914E0680914C0680934E06E3
:103D900090934C0690914F0680914D0680934F066C
:103DA00090934D06C3E5D6E08881A901480F511DC7
:103DB0002C814C832883252F3327219756E0CF343D
:103DC000D50791F71D861E8680E5898710923A06F1
:103DD00088E280933B060E946F1E84E08B871C86DE
:103DE00082E36AE14CE150E022E00E94801D86E31C
:103DF00090E00E94201BDF91CF9108950F931F93B5
:103E00008C018091DF089091E00860E00E94B41E70
:103E100089E180935906C8010E94971E1F910F9156
:103E20000895E82FA0913A06B0913B06F09158060C
:103E300040914E0650E0292F30E04217530709F019
:103E40008EC080914F068E1709F089C08091590667
:103E5000E82F81FF4EC010923A068CE280933B0619
:103E60000E946F1E82E18093590690914E068091C8
:103E70004C0680934E0690934C0690914F0680918D
:103E80004D0680934F0690934D06E3E5F6E021E062
:103E900030E08081A901480F511D44831082252FF5
:103EA0003327319756E0EF34F50799F715861686D4
:103EB0001182128280917901838314828D5F8093B5
:103EC000790182E0818B84E0828B95E0938B148A68
:103ED00080E68187938788E7848782E36AE140E20E
:103EE00050E022E00E94801D8AE390E00E94201BA7
:103EF00036C084FF34C04F2F50E084E0559547957D
:103F00008A95E1F79A2F80E02B2F30E0282B392B70
:103F1000CA01880F991F880F991F281B390B24513C
:103F2000304037FF02C020E030E03093E0082093BB
:103F3000DF08232B69F09A01220F331F220F331F52
:103F40002E5D3F4F685070406217730740F009C004
:103F5000E0FF05C080E090E060E00E94B41E20E039
:103F600030E0C90108950F931F93DF93CF930F9211
:103F7000CDB7DEB78C01045E1F4F10933A060C518B
:103F80001040802F845E80933B0689830E94EC1D45
:103F9000085F1F4F1093500689818451809351060A
:103FA000085F1F4F88E26AE1A80121E00E94801D9E
:103FB000C8014A960E94201B0F90CF91DF911F915C
:103FC0000F910895DF92EF92FF920F931F93CF937B
:103FD000DF93EC018091CC08882319F0CE010E9478
:103FE0005B18209709F0BFC08091CE088570F1F171
:103FF0008091760190917701892BC1F50E945C1A1E
:104000008823A1F18CE991E00E94FF1D88E0809354
:104010003606A6E0FA2EF092370688E396E067E6C9
:1040200071E048E050E00E94E5010AE416E0D801A2
:104030001D92FA94E9F7C8010A976EEA78E00E94A7
:10404000A222C80106966CEB78E00E94AA22C80161
:10405000049764EB78E00E94AA228091CE088860E1
:104060008093CE088AE290E00E94201B8091760126
:1040700090917701019690937701809376018091DA
:10408000CF08813009F002C28091CE0881FFFEC1C5
:1040900002E00093CF08809178018F5F80937801D0
:1040A0008F711091D0081295110F107E182BE0908F
:1040B000D108D090D20889ED98E068EC78E00E94B1
:1040C000101EF8E0FF2EF09236061092370688E3B5
:1040D00096E06FE671E049E050E00E94E5018CE275
:1040E00080933B0686E0809341060E94EC1DE0929F
:1040F0004E06D0924F068BE080934C0610934D06EF
:10410000E0E5F6E0DF011D92FA94E9F7809179018C
:10411000809352068D5F8093790180E680935806E4
:104120000093590683E080935A0610925B06109222
:104130005C0610925D0610925E0610925F06009378
:10414000600684E0809361060093620686E28093B5
:10415000630682E36AE140E250E022E00E94801DB3
:104160008AE390E0AEC0809148068F3E79F480915A
:1041700049068F3F59F480914A068F3F39F4809168
:104180004B068A3F19F42AE230E082C1C932D105D8
:1041900008F47CC110913606183009F082C1809174
:1041A0003706863009F07DC180E596E064EB78E063
:1041B00044E050E00E94EE01009709F072C1809146
:1041C0003F06813029F580E396E00E94FF1D1092A2
:1041D0003E0682E080933F068AE496E060E476E063
:1041E0000E94A22280E496E06EEA78E00E94A22279
:1041F00080E596E066E476E00E94AA2286E496E0F6
:1042000064EB78E00E94AA228AE290E00E94201BE0
:104210008091CE0883FF3AC110913F06123009F019
:1042200035C186E496E06CEB78E044E050E00E9413
:10423000EE01009709F02AC189ED98E060E476E08C
:104240000E94A2221093CE0821C1183009F01EC18D
:1042500080913706882309F019C18091380685348A
:1042600009F014C188E496E064EB78E044E050E0A3
:104270000E94EE01009709F009C18091410681304A
:1042800019F580914C068830F9F4E091D308F0914B
:10429000D408309719F084E496E009950E946F1EC7
:1042A00010924C0680914E06883F28F080914F0670
:1042B0008F5F80934F0680914E06885F80934E06F5
:1042C000CE010E94201BE2C00E945622882351F09A
:1042D00080914106813131F4CE010E945B22882316
:1042E00009F0D4C0C633D10528F480914106863048
:1042F00009F0CCC080914E068B3009F0BEC084E43A
:1043000096E068EC78E044E050E00E94EE0100970F
:1043100009F0BCC080915906382F82FF13C0E0918C
:10432000D508F091D608309759F080914F068295C4
:104330008695877063E040E050E020E030E009952A
:1043400085E090C090913A0680E020913B06022FD4
:1043500010E0082B192B80915806482F50E0E4E01C
:1043600055954795EA95E1F7CA01880F991F880F7F
:10437000991F081B190B0451104017FF02C000E0E1
:1043800010E08091CF08823079F531FF21C034FFF1
:104390001FC080E090E060E00E94B41E88E180933E
:1043A0005906E091D708F091D808309719F420E029
:1043B00030E007C080914D068295869587700995FB
:1043C0009C0183E08093CF08C9010E94971E5EC0C4
:1043D00081E08093CF0834FF03C080E090E002C00A
:1043E000C801019664E046C0833081F501151105CE
:1043F00079F1E091D508F091D608309749F1440F52
:10440000551F440F551FCE0108974E5D5F4F84170F
:10441000950708F4AC01C801840F951FC817D90788
:1044200010F0980103C09E01241B350B80914F06AC
:1044300082958695877060E009958091CD088823E4
:1044400019F0C80168E016C0C80108C08530F1F055
:1044500030FF0BC08330D1F0C801019669E00E94A3
:10446000B41E86E08093CF0811C00115110571F0CC
:10447000C80160E00E94B41E09C08091740190914F
:104480007501BE010E94111F9C0102C020E030E0B6
:10449000C901DF91CF911F910F91FF90EF90DF90B5
:1044A0000895CA32D10508F0D0CEF0CF8091090925
:1044B000811181E00895CF92DF92EF92FF920F93E6
:1044C0001F93CF93DF93C1EED8E030E0CC24DD24FE
:1044D00029C02A814B8180914E0690E0042F10E084
:1044E00080179107D9F490914F069217B9F48C81F7
:1044F0008823A1F02091510630E028503040F09000
:104500005006EE242E0D3F1DE881F981892F942F4E
:1045100064E476E044E556E0099531E00894C11C76
:10452000D11C25968091090990E0C816D9068CF215
:10453000832FDF91CF911F910F91FF90EF90DF902C
:10454000CF900895DC01FB0186E001900D9281502F
:10455000E1F708959C01FB0180819181A281B381E3
:10456000F90180839183A283B38308951F920F92F0
:104570000FB60F9211242F938F939F93AF93BF93F6
:1045800080910E0990910F09A0911009B091110925
:10459000209112090196A11DB11D243F28F0245F2E
:1045A0000196A11DB11D01C02A5F209312098093BD
:1045B0000E0990930F09A0931009B09311098091EF
:1045C0000A0990910B09A0910C09B0910D0901966F
:1045D000A11DB11D80930A0990930B09A0930C09AA
:1045E000B0930D09BF91AF919F918F912F910F9033
:1045F0000FBE0F901F9018958FB7F89420910E0959
:1046000030910F0940911009509111098FBFB901E4
:10461000CA0108959FB7F89420910A0930910B09B7
:1046200040910C0950910D0982B708B600FE06C0F2
:104630008F3F21F02F5F3F4F4F4F5F4F9FBF542F52
:10464000432F322F2227280F311D411D511D82E09B
:10465000220F331F441F551F8A95D1F7B901CA0194
:1046600008959B01AC017FB7F89480910A0990915D
:104670000B09A0910C09B0910D0962B708B600FEB4
:1046800005C06F3F19F00196A11DB11D7FBFBA2F64
:10469000A92F982F8827860F911DA11DB11D62E0BB
:1046A000880F991FAA1FBB1F6A95D1F7BC012EC0A6
:1046B000FFB7F89480910A0990910B09A0910C0919
:1046C000B0910D09E2B708B600FE05C0EF3F19F042
:1046D0000196A11DB11DFFBFBA2FA92F982F8827C2
:1046E0008E0F911DA11DB11DE2E0880F991FAA1F19
:1046F000BB1FEA95D1F7861B970B885E9340C0F2EB
:10470000215030404040504068517C4F21153105C8
:104710004105510569F60895019739F0880F991FF1
:10472000880F991F02970197F1F70895789483B73E
:10473000886083BF83B7806483BF83B7826083BF91
:1047400083B7816083BF89B7816089BF1EBC8EB586
:1047500082608EBD8EB581608EBD8FB581608FBD4C
:1047600085B5846085BD85B5806485BD329A319AF2
:10477000309A379A1AB80895CF93DF93482F50E0B4
:10478000CA0182599D4FFC013491425B5D4FFA0191
:104790008491882369F190E0880F991FFC01E05D06
:1047A000FD4FA591B491FC01E65CFD4FC591D491FC
:1047B000662351F42FB7F8948C91932F9095892309
:1047C0008C93888189230BC0623061F42FB7F894F1
:1047D0008C91932F909589238C938881832B888348
:1047E0002FBF06C09FB7F8948C91832B8C939FBFEB
:1047F000DF91CF910895482F50E0CA0182579D4F15
:10480000FC012491CA0182599D4FFC019491425BA5
:104810005D4FFA013491332381F12223D1F023300B
:1048200051F0243018F42130A1F410C0243031F0BC
:10483000253079F407C08FB58F7702C08FB58F7D93
:104840008FBD07C085B58F7D85BD03C083B78F7DC4
:1048500083BFE32FF0E0EE0FFF1FE65CFD4FA59155
:10486000B4912FB7F894662321F48C919095892305
:1048700002C08C91892B8C932FBF0895682F70E014
:10488000CB0182579D4FFC012491CB0182599D4F52
:10489000FC014491625B7D4FFB019491992319F4D3
:1048A00020E030E02CC02223D1F0233051F024301E
:1048B00018F42130A1F410C0243031F0253079F4FF
:1048C00007C08FB58F7702C08FB58F7D8FBD07C0B2
:1048D00085B58F7D85BD03C083B78F7D83BF892F4D
:1048E00090E0880F991F8C5B9D4FFC01A591B491BE
:1048F0008C9120E030E0842311F021E030E0C90108
:10490000089508951F920F920FB60F9211242F93BE
:104910003F934F938F939F93EF93FF935A991CC0AC
:104920004CB120915309309154092F5F3F4F2F73A1
:10493000307080915509909156092817390769F010
:10494000E0915309F0915409ED5EF64F40833093A6
:1049500054092093530901C08CB1FF91EF919F91AD
:104960008F914F913F912F910F900FBE0F901F90FD
:104970001895E091A709F091A809E05CFF4F81919B
:10498000919120813181821B930B8F739070892BC1
:1049900011F00E94812408951F920F920FB60F927A
:1049A00011242F933F938F939F93EF93FF93209125
:1049B0009709309198098091990990919A0928173F
:1049C000390711F4559813C0E0919909F0919A09AB
:1049D000E95AF64F20818091990990919A090196A0
:1049E0008F73907090939A09809399092CB9FF91D5
:1049F000EF919F918F913F912F910F900FBE0F904C
:104A00001F901895AF92BF92DF92EF92FF920F9393
:104A10001F93CF93DF93EC017A018B01DD244030AB
:104A200081EE580780E0680780E0780711F0DD2408
:104A3000D39491E0A92EB12CEC89FD89DD2069F099
:104A4000C50108A002C0880F991F0A94E2F780836D
:104A500060E079E08DE390E005C0108260E874E8E2
:104A60008EE190E0A80197010E9476292150304004
:104A700040405040569547953795279580E1203026
:104A8000380720F0DD2011F0DD24D6CFE889F98940
:104A90003083EA89FB89208319A2EE89FF8940814E
:104AA00021E030E0C9010C8C02C0880F991F0A94E4
:104AB000E2F7482B4083EE89FF894081C9010D8CC4
:104AC00002C0880F991F0A94E2F7482B4083EE89B1
:104AD000FF894081C9010E8C02C0880F991F0A947A
:104AE000E2F7482B4083EE89FF8980810F8C02C05A
:104AF000220F331F0A94E2F7209528232083DF91A9
:104B0000CF911F910F91FF90EF90DF90BF90AF90EA
:104B10000895DC011C96ED91FC911D97E05CFF4F20
:104B20002191319180819181281B390B2F73307035
:104B3000C9010895DC011C96ED91FC911D97E05C84
:104B4000FF4F20813181E054F040DF01AE5BBF4F69
:104B50008D919C9111972817390719F42FEF3FEF8A
:104B600007C08D919C91E80FF91F8081282F30E0BC
:104B7000C9010895DC011C96ED91FC911D97E05C44
:104B8000FF4F20813181E054F040DF01AE5BBF4F29
:104B90008D919C9111972817390719F42FEF3FEF4A
:104BA00010C08D919C911197E80FF91F20818D9174
:104BB0009C91119701968F73907011969C938E9390
:104BC00030E0C9010895DC0191968C91919788237A
:104BD00039F05496ED91FC915597808186FFF9CF7D
:104BE00091961C920895CF93DF93EC01EE85FF859B
:104BF000E05CFF4F20813181E054F0402F5F3F4F58
:104C00002F733070DF01AE5BBF4F8D919C91119778
:104C100028173907D1F3E05CFF4F80819181E05480
:104C2000F040E80FF91F6083EE85FF85E05CFF4FE1
:104C300031832083EE89FF89208181E090E00F8C11
:104C400002C0880F991F0A94E2F7282B208381E085
:104C500089A3EC89FD8980818064808381E090E074
:104C6000DF91CF91089510929E0910929D0988EED0
:104C700093E0A0E0B0E080939F099093A009A093F7
:104C8000A109B093A20986EA91E090939C098093D0
:104C90009B0983E199E09093A8098093A70987E590
:104CA00099E09093AA098093A90920E430E0309319
:104CB000AC092093AB0989E290E09093AE09809310
:104CC000AD098BE290E09093B0098093AF098AE23E
:104CD00090E09093B2098093B1093093B409209386
:104CE000B3098CE290E09093B6098093B50984E013
:104CF0008093B70983E08093B80987E08093B9096E
:104D000085E08093BA0981E08093BB090895CF9331
:104D1000DF930E9496230E94C611C9EBD4E20E9441
:104D200056122097E1F30E94B924F9CFFC0120E04C
:104D300030E08081882311F421E030E0C90108953A
:104D4000FC0181E080830895CF92DF92EF92FF9281
:104D50000F931F93CF93DF937C016B018A01C0E017
:104D6000D0E00FC0D6016D916D01D701ED91FC919E
:104D70000190F081E02DC7010995C80FD91F01509E
:104D800010400115110571F7CE01DF91CF911F91F0
:104D90000F91FF90EF90DF90CF900895DC01ED919F
:104DA000FC910190F081E02D09950895EF92FF921A
:104DB0000F931F938C01DC01ED91FC910190F08128
:104DC000E02D6DE009957C01D801ED91FC910190F9
:104DD000F081E02DC8016AE009959C012E0D3F1D70
:104DE000C9011F910F91FF90EF900895CF93DF932A
:104DF000EC016115710519F420E030E00FC0DB0112
:104E00000D900020E9F71197A61BB70BE881F981F7
:104E10000280F381E02DAD0109959C01C901DF916C
:104E2000CF9108954F925F927F928F929F92AF920F
:104E3000BF92CF92DF92EF92FF920F931F93DF9377
:104E4000CF93CDB7DEB7A1970FB6F894DEBF0FBEF4
:104E5000CDBF2C01742ECB01223008F42AE019A218
:104E600031E2C32ED12CCC0EDD1E822E9924AA2431
:104E7000BB24672D752FA50194010E947629790125
:104E80008A01C801B701A50194010E942429472D78
:104E9000461B0894C108D1084A3014F4405D01C093
:104EA000495CF6014083E114F1040105110521F08C
:104EB0007E2C5F2DC801DDCFC201B6010E94F6260F
:104EC000A1960FB6F894DEBF0FBECDBFCF91DF9194
:104ED0001F910F91FF90EF90DF90CF90BF90AF9018
:104EE0009F908F907F905F904F900895DC012115E7
:104EF000310541F4ED91FC910190F081E02D642F9A
:104F0000099508950E9412270895CF92DF92EF929B
:104F1000FF920F931F936C017B019A0100E010E058
:104F2000B801A7010E9476278C01C6010E94D626EF
:104F3000080F191FC8011F910F91FF90EF90DF908C
:104F4000CF900895EF92FF920F931F939A01E62E50
:104F5000FF2400E010E0B801A7010E9476271F910E
:104F60000F91FF90EF900895CF92DF92EF92FF9212
:104F70000F931F93CF93DF93EC016A017B012115FF
:104F8000310541F4E881F9810190F081E02D642F31
:104F900009951FC02A303105D1F477FF17C0E88189
:104FA000F9810190F081E02D6DE209958C01442793
:104FB0005527BA014C195D096E097F09CE012AE017
:104FC0000E9412279801280F391F04C02AE00E946E
:104FD00012279C01C901DF91CF911F910F91FF9082
:104FE000EF90DF90CF900895CF92DF92EF92FF92F3
:104FF0000F931F936C017B019A010027F7FC00952A
:10500000102FB801A7010E94B4278C01C6010E948D
:10501000D626080F191FC8011F910F91FF90EF901E
:10502000DF90CF9008950E94F6260895EF92FF92A8
:105030000F931F937C010E94F6268C01C7010E94EA
:10504000D626080F191FC8011F910F91FF90EF90EE
:105050000895CF93DF93EC010E94FC226887798743
:105060008A879B87E881F9810084F185E02DCE0154
:1050700009959C0197FF15C00E94FC22288539855F
:105080004A855B85621B730B840B950B2C813D81DC
:105090004E815F81621773078407950718F32FEF1E
:1050A0003FEFC901DF91CF910895CF93DF93EC01DA
:1050B000CE010E9429289C0197FD0EC08D329105DA
:1050C00059F0C0970A9740F0E881F9810680F7818E
:1050D000E02DCE010995ECCFC901DF91CF91089564
:1050E0009F92AF92BF92CF92DF92EF92FF920F9377
:1050F0001F93CF93DF936C01B62E0E945528EC01CD
:1051000097FF04C0EE24FF2487014CC09924EE24AD
:10511000FF248701AB2CBB24A7FCB094CA15DB0588
:1051200029F1CD32D10519F4992493941FC0CE01F1
:10513000C0970A97D8F4C801B7012AE030E040E0F0
:1051400050E00E9424297B018C01CE01AA2797FD03
:10515000A095BA2FE80EF91E0A1F1B1F80ED9FEFC6
:10516000AFEFBFEFE80EF91E0A1F1B1FD601ED912E
:10517000FC910680F781E02DC6010995C6010E94C9
:105180002928EC01C0970A9748F2CA15DB0531F2CD
:10519000992041F010950095F094E094E11CF11CE9
:1051A000011D111DB701C801DF91CF911F910F9112
:1051B000FF90EF90DF90CF90BF90AF909F900895B9
:1051C00061E00E9470280895EF92FF920F931F9361
:1051D0007B018C01611571058105910529F420E0A1
:1051E00030E040E050E00BC00E94D701A8019701D9
:1051F0000E949829AC01CB01DA019C01AD01B901F3
:10520000CA011F910F91FF90EF900895EF92FF92C6
:105210000F931F937B018C01621773078407950717
:1052200064F4261B370B480B590BCA01B9010E94C5
:10523000E428E60EF71E081F191FB701C8011F91C9
:105240000F91FF90EF900895629FD001739FF0013E
:10525000829FE00DF11D649FE00DF11D929FF00D06
:10526000839FF00D749FF00D659FF00D9927729F3D
:10527000B00DE11DF91F639FB00DE11DF91FBD01C8
:10528000CF0111240895991B79E004C0991F961746
:1052900008F0961B881F7A95C9F780950895AA1B78
:1052A000BB1B51E107C0AA1FBB1FA617B70710F011
:1052B000A61BB70B881F991F5A95A9F78095909543
:1052C000BC01CD01089597FB092E07260AD077FD72
:1052D00004D0E5DF06D000201AF4709561957F4F69
:1052E0000895F6F7909581959F4F0895A1E21A2EA3
:1052F000AA1BBB1BFD010DC0AA1FBB1FEE1FFF1F7A
:10530000A217B307E407F50720F0A21BB30BE40BC9
:10531000F50B661F771F881F991F1A9469F7609510
:105320007095809590959B01AC01BD01CF010895CA
:1053300097FB092E05260ED057FD04D0D7DF0AD0E3
:10534000001C38F450954095309521953F4F4F4FB4
:105350005F4F0895F6F790958095709561957F4F12
:105360008F4F9F4F0895EE0FFF1F0590F491E02D92
:1053700009942F923F924F925F926F927F928F92F9
:105380009F92AF92BF92CF92DF92EF92FF920F93D4
:105390001F93CF93DF93CDB7DEB7CA1BDB0B0FB6DE
:1053A000F894DEBF0FBECDBF09942A88398848889B
:1053B0005F846E847D848C849B84AA84B984C88431
:1053C000DF80EE80FD800C811B81AA81B981CE0F28
:1053D000D11D0FB6F894DEBF0FBECDBFED0108950D
:0453E000F894FFCF6F
:1053E4002350726573657420004745542000474577
:1053F40054202F6E6578742000474554202F707216
:105404006576200023204661696C656420746F20F2
:105414006163636573732045746865726E65742097
:10542400636F6E74726F6C6C657200236C65644399
:105434006F6E74726F6C00236E657420002E0020F2
:105444002E2E2E20004F4B0023427574746F6E0075
:1054540023436C656172656400234F4F52002346F9
:10546400784C617965722061646465642E0023461A
:10547400784C61796572200023202066783D0023F2
:1054840020206672616D65456163683D00232020BC
:105494006672616D654F66733D002320206E756DE5
:1054A40053746172743D002320206E756D436F75D3
:1054B4006E743D00544F00446973706C6179696E79
:1054C400672E2E2E000100000014000C00FFFFC008
:1054D400A804890022F9017FE3EFBEADDE417264C6
:1054E40075696E6F2D3030003703010306FF638248
:1054F4005363350150000100010A000000007604E6
:10550400A42600000000F40D76027F04850F6B0EC4
:105514007E0280022E08FFFFFFFFFFFFFFFFFFFF59
:10552400FFFF00000000F325A4268925BA259A254B
:02553400E3256D
:00000001FF
